:020000041000EA
:1000000000B5324B212058609868022188439860DF
:10001000D860186158612E4B002199600221596106
:100020000121F02299502B49196001219960352056
:1000300000F044F80222904214D00621196600F024
:1000400034F8196E01211966002018661A6600F04E
:100050002CF8196E196E196E052000F02FF8012189
:100060000842F9D1002199601B49196000215960AB
:100070001A491B48016001219960EB211966A021F2
:10008000196600F012F800219960164914480160C1
:100090000121996001BC002800D000471248134993
:1000A000086003C880F30888084703B5996A0420EC
:1000B0000142FBD001200142F8D103BD02B5186610
:1000C0001866FFF7F2FF186E186E02BD00000240BE
:1000D000000000180000070000035F00212200005C
:1000E000F4000018222000A00001001008ED00E03C
:1000F00000000000000000000000000074B24E7A12
:1001000000200420F7010010C3010010C5010010F9
:10011000C1010010C1010010C1010010C101001097
:10012000C1010010C1010010C1010010C701001081
:10013000C1010010C1010010C9010010CB01001065
:10014000CD010010CD010010CD010010CD01001037
:10015000CD010010CD010010CD010010CD01001027
:10016000CD010010CD010010CD010010CD01001017
:10017000CD010010CD010010CD010010CD01001007
:10018000CD010010CD010010CD010010CD010010F7
:10019000CD010010CD010010CD010010CD010010E7
:1001A000CD010010CD010010CD010010CD010010D7
:1001B000CD010010CD010010CD010010CD010010C7
:1001C00000BE00BE00BE00BE00BE00BEEFF3058054
:1001D000103800BEF2EB8871402000105C20001047
:1001E0003402001090A31AE700201F49086006C8D7
:1001F00081F3088810471D48006800282FD10DA4FE
:100200000ECC002902D000F012F8F9E71849194A7B
:10021000002000E001C19142FCD1174988471749ED
:1002200088471749884700BEFDE701C901C29A42C5
:10023000FBD370475C200010C00000204C0200205F
:10024000E82100100000042000000420E821001034
:10025000001004200010042000000000704709482E
:1002600001F0DEFB0047000008ED00E0000000D0D8
:10027000500200201C0600209918001055030010A1
:100280008D1900105756000006005250ABB3605352
:10029000F41F001006005250861C030204200010B8
:1002A000060052505422A29D0C200010050052500E
:1002B000DE65F468E8210010F8B5C0460448054B37
:1002C00010B5834203D0044B002B00D0984710BDDB
:1002D0004C0200204C0200200000000006480749A4
:1002E000091A8B10C90FC91810B5491003D0044B57
:1002F000002B00D0984710BD4C0200204C0200207B
:100300000000000010B5074C2378002B09D1FFF73F
:10031000D5FF054B002B02D0044800E000BF0123AD
:10032000237010BD5005002000000000981F001031
:10033000054B10B5002B03D00449054800E000BF71
:10034000FFF7CCFF10BDC0460000000054050020A0
:10035000981F001070B5D024FF2000F011F8FF2383
:10036000FF2600252406226A9343E362FA202661D1
:1003700000F00EFDFA20256100F00AFDF6E7C04608
:100380004021F0B5D6464F46464688468031D025B6
:100390008C46C0B5BB398027002301248A46104A09
:1003A0002D067F01044211D0210099404646A962E2
:1003B000A96111687140664631403E0016433160C4
:1003C000084ED900B146564649440E6001334008F4
:1003D00004321E2BE6D1E0BCBA46B146A846F0BDB9
:1003E00004C0014004400140024B18688007C00F60
:1003F0007047C04600C0064070B5EFF3108C72B66F
:100400000D4D2B68002BFCD0BFF35F8F0724CB086A
:10041000C618C05C01230C40A3401C0004400342EA
:1004200007D103433370BFF35F8F2C608CF31088C8
:1004300070BD100001F0AEFA2C0100D00021044B79
:10044000044ABFF35F8F02C39342FAD17047C0469C
:10045000000100D0800100D0044A1078431CDBB2B8
:10046000172B00D9102313707047C0469801002045
:1004700001238340002904D0034A1360034A136018
:100480007047034A1360FBE780E200E000E100E010
:1004900080E100E0024B10309B688000C05870473C
:1004A00000ED00E070B50D00EFF3108672B60F4A54
:1004B0001368002BFCD0BFF35F8F0D4B10309B688F
:1004C00084001B590B4A934203D09D4201D001F096
:1004D00079FA074B9B681D51BFF35F8FBFF35F8FA6
:1004E0000022024B1A6086F3108870BD240100D0F0
:1004F00000ED00E0CD010010F0B5DE4657464E4657
:100500004546E0B50C0083B0EFF3108972B6584A47
:100510001368002BFCD0BFF35F8F564B9A68030023
:1005200010339F00D559544A9046954232D0A54287
:1005300043D0524EAA1B2F2A2CD801228240924629
:1005400051464F4A12681140019151464D4A11607F
:10055000BFF35F8FEFF305829346002A33D1012367
:100560002A009A4393689C4208D177E04B005B18BD
:100570009B00F3189968A1422AD01A00062151560F
:100580000029F3DA019B002B19D052463E4B1A602A
:100590003B4B1A60374B9B68DD51BFF35F8FBFF356
:1005A0005F8F0022324B1A6089F3108803B0F0BCD1
:1005B000BB46B246A946A046F0BD1500EAE7524642
:1005C000304B1A60E6E79342C9D001F0FBF9C6E769
:1005D00006215956002921DB4A00501880003418A2
:1005E0008046A0689860E079D871062020569871FE
:1005F000002824DBA488F01A64052415444400195B
:10060000E0240005400D24022043988052181F4B1F
:100610009200B6181A781970B271B3E759460029DA
:100620000FD1FF3191711A49918018490A789A7156
:10063000184A9B1B5B415A43120D0A70A2E71648E9
:10064000E3E7164A1649D21A083A5002400D014310
:100650009980144952080A43DA8093E706215156DB
:1006600013000029B8DA5A46002AEAD14546DCE7E9
:10067000240100D000ED00E0CD0100109C0100201D
:1006800000E100E080E100E080E200E019060020E7
:1006900001BDFFFFAAAA000001BD0000D601002095
:1006A00000F0FFFF00F8FFFF70B5EFF305810124B4
:1006B0000443EFF3108C72B6214A1368002BFCD070
:1006C000BFF35F8F1F4B05001F4AED1A6D416A4350
:1006D000120D1E4D8900AE6852B27658A6421CD04B
:1006E0000621595691421CD012215956914222D0CE
:1006F0001E215956914220D02A2159560324914255
:1007000010D0134B19781A708171BFF35F8F0022DC
:100710000B4B1A608CF3108870BDAB680D4C5C50AD
:10072000EFE700246100091989005B18FF21997126
:1007300009499980E5E70124F4E70224F2E7C0467D
:10074000240100D09C010020AAAA000000ED00E0D6
:1007500019060020CD01001001BDFFFF054B064A20
:100760001360064A136053609360D3601361536152
:10077000936170478080808000E400E004E400E042
:10078000024B9C4661448900016070474000003480
:1007900010B50400FFF760FE01002000FFF7F0FF36
:1007A000FF232371BFF35F8F10BDC04610B5040057
:1007B000FFF752FE01002000FFF7E2FFFF23A380B6
:1007C000BFF35F8F10BDC04683680B4810B58446E9
:1007D00061446244090112019A18591854684B681F
:1007E00001209C4201D802D00020C0B210BD126886
:1007F0000B689A42F9D8F7E7FFFFFF0F0A4B196819
:10080000EFF3108072B60A68002AFCD0BFF35F8F46
:100810001B68BFF35F8F00221A6080F3108840BF0F
:10082000002000217047C04604060020F8B5574656
:100830004E464546DE46E0B599460CAB1C780DABFE
:100840001B78060090469A460768002C11D1BC7BA5
:10085000002C42D065003B682D19033D59194B7897
:10086000BB73002B00D1FB7300238B704B700B709C
:1008700004E065003B682D19033D5919B2682A4B05
:1008800094464246E3181B0163441A604A465A6084
:100890000A9A9A600B9ADA6000238B704B700B7087
:1008A0007B7B9B46002B2BD022005946B8687B6887
:1008B00098473A68002816D05B4658465B005B4470
:1008C0005519033BA870D118D35C002B00D06B7076
:1008D0005B460C707B73A34513D0F0BCBB46B2469D
:1008E000A946A046F8BD5B465B005B44033BD318BA
:1008F0009C705119525D002A00D05A705B460B70F3
:100900007C7342464B46307D00F090FB051E06D0BE
:100910005346002B03D12100306800F0ABFD0E9B45
:10092000002BDAD01D70D8E7FFFFFF0FF0B5DE46D1
:1009300057464E4645460023E0B58BB00893674BBB
:100940008200D45800239B46099000F00FFB626898
:1009500006000F00EFF3108572B61368002BFCD071
:10096000BFF35F8F23689C465B7B9946002B00D1C9
:1009700069E0A2685A4B90464B441B019844434699
:100980001A685B6810001900801BB941002900DC5F
:1009900063E0099800F04AFB0023002298460023F8
:1009A0000692079300239A466368BFF35F8F5A4607
:1009B0001A6085F310885346002B08D10028C4D153
:1009C0000BB0F0BCBB46B246A946A046F0BD089BA2
:1009D000414618024B461843D047626806000F0094
:1009E000EFF3108572B61368002BFCD0BFF35F8F56
:1009F000002F50DB33003B4302D02369002B61D131
:100A00002368D97B002907D04A00521819688C4600
:100A100049466244033A51709A7B002A01D14A4602
:100A20009A734A46DA734B46E168013BCA5C01326D
:100A3000CA545B4623616368BFF35F8F5A461A60EE
:100A400085F3108881E70023002298460023069250
:100A50000793002300209A46A6E7002902D1002828
:100A600000D096E70021604600F082FC43461A68F9
:100A70005B680692079343469B689A464346DB6849
:100A80009846E3684B44013B1B7808931B020343E1
:100A90002361002088E72369002BB1D0069A079BC9
:100AA000921BBB41002B15DB594604910121039198
:100AB0004946029141460191514620000091FFF7BD
:100AC000B5FEB6E700F052FA32003B0012184B4177
:100AD000002BE9DA0122034B5242E5E7F005002042
:100AE000FFFFFF0FFFFFFF7F10B5144C6368002B63
:100AF00004D00A211248FFF743FE10BD2300114A1B
:100B00001021206800F04EFB032000F023FA0320A0
:100B100000F0F6FA03200C4900F042FAFFF79CFCC3
:100B20000A4B9C4603232375D0231B061B68604495
:100B30006375074B80006060DC60DAE7E401002049
:100B400004060020C90700102D09001040000034E1
:100B5000F0050020F0B54E464546DE465746E0B566
:100B600085B0019310AB1B780600039300239946D0
:100B7000984600927268EFF3108B72B61368002BE0
:100B8000FCD0BFF35F8F3568AC7B002C3DD0670095
:100B90002B683F19033FDB195A78AA73002A00D14A
:100BA000EA73B168474A8C4600980199A21812016D
:100BB0006244106051600E9991600F99D160424675
:100BC0009A705A701A706B7B9A46002B67D022007D
:100BD0001900A8686B6898472A68002852D05346C5
:100BE00050465B005344D719033BB870D118D35C0F
:100BF000002B00D07B7053460C706B7354454FD064
:100C0000F3681B19013B187800E000207368BFF3FC
:100C10005F8F42461A608BF31088002C4FD04B46F2
:100C2000002B08D10002204305B0F0BCBB46B24601
:100C3000A946A046F0BD039B002B3ED00E9B002092
:100C40000F999847030004000D000B4335D000298D
:100C50000ADA009A019B121BAB4100920193002B10
:100C60000ADB039B994685E700F080F924184D4183
:100C700000940195002DF4DA0123134C5B4200939C
:100C80000194EEE753465B005344033BD3189C703A
:100C9000D119D25D002A00D05A7053460B706C7384
:100CA000307D009A019B00F0C1F981460028A7D051
:100CB0002100306800F0DEFBA2E70020B4E701204D
:100CC0004042B1E7FFFFFF0FFFFFFF7FF0B50400D9
:100CD0000D0006267642F717C64636196F4100B555
:100CE00084B08F4214D811D000F040F932003B009C
:100CF000121A8B41002B15DC002B3ED0200029005E
:100D000000F03EF904B080BCB846F0BD8642EBD995
:100D10000026002700F02AF932003B00121A8B410E
:100D2000002BE9DD002302930193154B3200009361
:100D300014483B00FFF70EFF0028DFDB0023984636
:100D4000BC46114A114F7B6A9C4504D8B96A8E4251
:100D5000D4D99C45D2D11168EFF3108072B60B68DC
:100D6000002BFCD0BFF35F8F1368BFF35F8F41464A
:100D7000196080F3108820BFE5E7002ABED0D1E7D4
:100D8000FD070010E401002004060020004005409B
:100D900070B5060000F0EAF8FA2204000D00002306
:100DA00030000021920000F0F3FE00196941002993
:100DB00002DBFFF78BFF70BD012001494042F8E7DD
:100DC000FFFFFF7FF0B5EFF30583CE46474680B5C2
:100DD00005000C0085B0002B12D02C4A0020536A6D
:100DE0009C4203D8926A0130AA4204D305B0C0BC29
:100DF000B946B046F0BDE01A421E9041C0B2F5E7D8
:100E0000234E02930193234B0200009330000B000A
:100E1000FFF7A0FE031EE0DD20BF7168EFF310872F
:100E200072B60A68002AFCD0BFF35F8FDAB294462C
:100E30003068427B62451DD0FF221A40510089462E
:100E4000016891448846494641440339897800291C
:100E500013D0F1681B0A88464244013A1278DBB28B
:100E60009A420FD07368BFF35F8F00221A6087F336
:100E70001088B2E7FF221A40EBE732699342F1D1C2
:100E80003161EFE7614600F0F5FAEBE7004005401D
:100E9000E4010020FD070010F0B5EFF30582D6460F
:100EA0004F4646461000C0B51038EFF3108872B6B2
:100EB000214C2368002BFCD0BFF35F8F0123190066
:100EC00081401E4D1F006963AA461D4D29601D4DBE
:100ED0002E78AC463500C5402F402B4209D1BFF3D8
:100EE0005F8F276088F31088E0BCBA46B146A846F9
:100EF000F0BD5346144D5F6A83005D59AF420ED377
:100F0000124A8E439B5862461670BFF35F8F0022D1
:100F1000226088F31088002BE6D09847E4E70C4B5A
:100F200092009C46624413681360BFF35F8F0023F6
:100F3000236088F31088D7E7280100D000400540DF
:100F40003C7005401A060020080600206C050020B1
:100F5000D03F054010B50100024A0348FFF74CFAA4
:100F600010BDC046981F001018060020034B596A98
:100F70000A00986A596A8A42FAD1704700400540CF
:100F8000064A536A9942FCD807D1044B02E05A6AD8
:100F9000914202D19A6A8242F9D3704700400540DB
:100FA00070B504000D00EFF3108672B61A4A13688C
:100FB000002BFCD0BFF35F8F002D1BD02000FFF76C
:100FC00069FA164981420AD02000FFF76BFA012125
:100FD0002000FFF74DFA0123A340114A1360114B83
:100FE000A400E550BFF35F8F00220B4B1A6086F31D
:100FF000108870BD0B4BA200D5500122A2400A49B7
:1010000020000B7893430B700449FFF775FA002119
:101010002000FFF72DFAE5E7280100D0990E001017
:10102000386005406C0500201A060020F0B54F46D8
:10103000D6464646C0B507002C4C616A0D00A66A2C
:10104000616AA942FAD18B4208D805D00120E0BCE0
:10105000BA46B146A846F0BDB242F7D9EFF3108ABE
:1010600072B6234801680029FCD0BFF35F8F0125C9
:10107000BD4020491D4C8846097889462943C9B29C
:101080008C46414660460870391D1B4889006563DF
:101090000A51B9000B50216A0020294219D0616A17
:1010A0000800A66A616A8142FAD18B4219D801D13F
:1010B000B24216D8CC4516D00C4B1F201D625D6382
:1010C00001230740BB400D4A1E38136043464A4681
:1010D0001A70BFF35F8F0022054B1A608AF31088E5
:1010E000B5E70020F5E70120F3E7C04600400540E2
:1010F000280100D01A0600200806002080E200E047
:10110000EFF3108C72B60A490B68002BFCD0BFF3CA
:101110005F8F01238340074A0748136202789A438E
:101120000270BFF35F8F00230B608CF31088704751
:10113000280100D0004005401A06002070B50500C7
:1011400014001600002915D00C00002A12D0806867
:101150006B689847296800280ED073009B196200BD
:10116000033B1219CB18033A9C7088188A5C002A3A
:1011700015D10670200070BD63001B197200033B7F
:101180009219CB18033A9E7088188A5C002A02D103
:1011900004703400EEE75A7004703400EAE75A70C5
:1011A0000670E7E730B583600023CCB243730133A8
:1011B000047342608373C4730D000068012C06D968
:1011C000421C0133DBB2137003329C42F9D1FF2180
:1011D00029404B005918002340180338437030BD94
:1011E000F8B5CE46474606000C0080B5002907D06A
:1011F0004D0003686D18033D5A195778002F04D12C
:101200002000C0BCB946B046F8BD7900C919033901
:101210008846434459788946002159705170736853
:101220003A002100806898473368002814D042466D
:101230009A18947059195B5D002B00D053700F7091
:10124000270049463000FFF7CBFF3900020030008D
:10125000FFF774FF0400D3E7424641465D19AF70C3
:101260009A185B5C002B00D06B701470E9E7C046E5
:10127000F0B557464546DE464E46E0B50D006B00DC
:1012800001685B19DF1E0400C85D83B00192CA19B2
:10129000002850D043001B18033BCB185E78B4469F
:1012A000002E1AD1019E002E42D0E67B002E04D0E3
:1012B00073009B19CB18033B5D70A37B002B00D1FF
:1012C000A573E57300282FD10023537003B0F0BC41
:1012D000BB46B246A946A046F0BD72006244033A3E
:1012E00089184A78904600224A7091465A70010047
:1012F00032002000FFF722FF43468246002B07D032
:101300005B0021684344033BCB185A78002A16D16E
:10131000424651462000FFF711FF2168019BCA1980
:10132000002BC2D10028CFD043001B18033BCB18A1
:1013300000219970C8E7019B002BB6D1C4E750008B
:101340008018033809184878834648464870587012
:1013500041462000FFF7F2FE594680462000FFF785
:101360003FFF414602002000FFF7E8FE8046CFE73E
:10137000F0B557464546DE464E46E0B583B001918E
:10138000457B04006B0000685B19DF1EC15DC2195C
:10139000002952D04B005B18033BC3185E78B4465B
:1013A000002E1CD1019E002E44D0E67B002E04D0DE
:1013B00073009B19C318033B5D70A37B002B00D106
:1013C000A573E573002931D10023280053706173A0
:1013D00003B0F0BCBB46B246A946A046F0BD7200C1
:1013E0006244033A80184278904600224270914647
:1013F0005A7020003200FFF7A1FE43468246002BC0
:1014000007D05B0021684344033BCB185A78002A7D
:1014100017D1424651462000FFF790FE019B010084
:101420002068C219002BC0D10029CDD04B005B1819
:10143000033BC31800209870C6E7019B002BB4D172
:10144000C2E7500080180338091848788346484698
:101450004870587041462000FFF770FE594680469C
:101460002000FFF7BDFE414602002000FFF766FEA8
:101470008046CEE770B5040000292CD0437B8B4218
:101480002ED0056848004018033828188278002AB2
:1014900021D053009B18033BEA5CEE188A4202D12C
:1014A0001BE0002A08D053009B18033BEB185A7826
:1014B0008A42F6D142785A70002301228370437029
:1014C0002000FFF7D5FE617B02002000FFF736FE0B
:1014D0006073012000E0002070BD43783370EBE7BB
:1014E00001221900FFF7C4FE60730120F4E7C04633
:1014F00030B50C2083B000F0B3F9FEF775FF00287B
:101500000ED0994B994A1A605A609A60DA601A6153
:101510005A619A61DA611A62954A5A6203B030BD23
:10152000944CA06700F0A4F90122934B1A60636CFD
:10153000012BFCD10322914B1A608E4A936B012B35
:10154000FCD1013301218E4A8E480093043300F010
:1015500037F905238C4A009301218C4800F030F9BB
:101560008B4B5A68FF2A02D8802252005A60802290
:101570007D4C824B21691201854D1A60002907D0EC
:10158000606900F07FFA431C5800C0180338FDD290
:10159000E0217F4B02201A681140802252012A4329
:1015A00011601968484003210140116004219A68C4
:1015B0001142FCD08022802192012A43090111604E
:1015C000802252005A60734B2361734B5968FF2984
:1015D00000D85A600321684A6F4B116002399A683B
:1015E0001142FCD0E0201A681040802252011A43B8
:1015F00010601868484003210140022011606649CC
:101600008A681042FCD0802292011343802212018A
:101610001A608022614B52004A606361604B5968D6
:10162000FF2900D85A6080225E4BE16912015C4DAF
:101630001A60002907D0606900F024FA431C5800A2
:10164000C0180338FDD2E02255490B681A408023A8
:101650005B012B431A60802380229B012B431201E4
:101660001A608022414B52004A60E3614E4B596838
:10167000FF2900D85A6080224C4B216A12014A4D42
:101680001A60002907D0606900F0FCF9431C58007B
:10169000C0180338FDD2E02243490B681A4080236A
:1016A0005B012B431A60802380229B012B43120194
:1016B0001A60802380225B004B602C4BD202236295
:1016C0003B4B5968914200D25A608022394B616A83
:1016D0001201374D1A60002907D0606900F0D2F975
:1016E000431C5800C0180338FDD2E02230490B6873
:1016F0001A4080235B012B431A60802380229B01C8
:101700002B4312011A608023DB024B60184B63628B
:10171000294B5A68FF2A02D8802252005A60802240
:10172000264BA1691201244D1A60002907D0606977
:1017300000F0A8F9431C5800C0180338FDD2E0227D
:101740001D490B681A4080235B012B431A608023DC
:1017500080229B012B4312011A6080235B004B60A7
:101760000E4BA361DAE6C0467C050020006CDC026B
:101770001BB70000008000403CB0004030B000408B
:10178000002F685900800240008C864700C002404C
:1017900030800040001BB7003C8000404059730778
:1017A0005480004054B000406080004060B0004071
:1017B0006C8000406CB000404880004048B0004061
:1017C000F8B5040021481D0017000E0000F05AF97A
:1017D0000100380000F056F9069B29041B03194349
:1017E0002368002B20DB1A4B1A4DE21853425A4152
:1017F00080235B019C461203174B62441A60174B0F
:101800001A601700AB689F43FBD1C022231D9201D1
:101810001A4321232660A06013602368002BFCDAA2
:101820000823E1601360F8BD3F2322681340B342F0
:10183000D9D1A3681B051B0D8342D4D1EE22E368E6
:10184000D20213408B42CED1EDE7C046001BB70059
:101850000040FDBF00C0004000E0004000F000403C
:101860008023024A9B000343D362704700800540F7
:10187000AA23064A1B0113602F230549D360054B99
:1018800019605368002BFCDA7047C04600400240E4
:1018900000B0FA00006002402C4B2D4A70B51A606F
:1018A0002C4A2D4B2D491A6014008B689C43FBD1A8
:1018B0002B4D2C4EB54208D2013E761BB60808CD02
:1018C000984723000134B342F9D1FFF711FE264AAD
:1018D000214B1A60214A9368DB43DB01DD09002BB1
:1018E000F9D14022214B224C224E9A675A671A673F
:1018F000DA66B44208D223682000002B20D00834D6
:10190000FEF754FFB442F6D31B4E1C4CC022A16814
:10191000300000F0A7F9A660FEF790FDFEF71EFF6D
:10192000FFF7E2F8164C174EB44208D2013E361BC0
:10193000B60808CC98472B0001359E42F9D170BDFE
:101940000834FEF725FFB442D5D3DDE700E00040C0
:10195000BFCDFBFEFE7F3C0000F0004000C0004019
:101960003802002048020020FFFFFF0100F0014084
:1019700030020020380200200000002000ED00E0CE
:10198000480200204C02002000BEFDE710B5FFF722
:10199000FBFFC0460FB400B5084883B000F094FACE
:1019A000049B002B07D005A91800019100F018F83E
:1019B000034800F089FA0120FFF7E6FFBC1F001082
:1019C000CC1F001010B50148FFF7E4FFD01F001036
:1019D00010B5002800D110BD00F02AFAFBE7C04680
:1019E00010B5094A0300146884B0002C08D0012205
:1019F00000910648524203A9A047012004B010BD3F
:101A000000F062FA0020F9E7EC050020D11900107F
:101A100001480421014B184710020020411A001010
:101A2000142310B50100188804331B88984710BD93
:101A3000162310B50100188802331B88984710BD83
:101A4000F8B54746CE4680B50F1E19D014239946E7
:101A5000043304000025012698464B461888434667
:101A600021681B88984701C4431E984101354042B4
:101A70000640AF42F1D13000C0BCB946B046F8BD17
:101A80000126F8E7114A936F9B0813D2106651663E
:101A9000002905D0FFE7FFE7FFE7516F106F7047A0
:101AA00004B5002801D00020C04300F065FA0021F1
:101AB00004BDC046F0B5146E556E576F166FFFF734
:101AC000E5FF1466556657671667F0BD000000D045
:101AD000132370B51D78012D15D010DD1C48FFF7BC
:101AE000A7FF1C4C01008022200000F0BBF8022D53
:101AF00006D01948FFF794FF184B186070BD154CBD
:101B0000174BA364F5E7164B124C23606360A36088
:101B1000E36023616361A361E36123626362A362A3
:101B2000E36223636363A363E36323646364A36483
:101B3000E36423656365A365E36523666366A36663
:101B4000E36623676367A367E367A364D1E7C046DF
:101B500053440000500300204C33000000060020D6
:101B6000651B001007B5604601880A0A0230DF2AAB
:101B7000FAD1C9B2820804D3028840880004104315
:101B800000E00068014A5050039007BD5003002058
:101B900051434343C9188C46110C83B24B4310B4D4
:101BA000040C614392B280B2504362431C041B0C8C
:101BB000001910BC59411304120CC0185141614462
:101BC00070470000132310B512481C78FFF730FF50
:101BD0000100012C0AD003DD80220F4800F042F8FA
:101BE0000E48FFF71DFF0E4B186010BD0A4C542223
:101BF000200000F037F80B4B6365A365E3652366AF
:101C00006366A366E36623676367A367E36723628C
:101C1000E361E5E753460000500400204C33000028
:101C200000060020291C001007B5604601880A0A3A
:101C30000230DF2AFAD1C9B2820804D30288408870
:101C40000004104300E00068014A5050039007BDB3
:101C50005004002001480421014B184720020020B5
:101C6000411A0010014B5B68184700002002002059
:101C7000030010B5080011001B68984710BDC0464E
:101C8000F0B546464F46D646C0B5437D80460E0069
:101C90001700002B46D0002A3FDD4B1E9946244BEF
:101CA0000125002400209A460DE04B461B5D0D3BAC
:101CB0005A425341325DDBB20A2A0BD02B00013469
:101CC00001359F421ADD002CEFD14346325D1B7D6A
:101CD0000A2AF3D1002BF1D1A04204DA4346211A9B
:101CE0001B6830189847434650461B6802219847A6
:101CF000013428002B0001359F42E4DC874204DDDB
:101D00004346391A1B6830189847F619013E337854
:101D10000D3B5A42534142461375E0BCBA46B146A8
:101D2000A846F0BD0368110030009847F5E7C046AB
:101D30003C200010F0B5DE4657464E464546E0B51D
:101D400085B017001C0006000D00FFF70FF90023F7
:101D5000304A12184B41002B58DB2F4908008A46A5
:101D600000F012F901906B1C03D1300000F0CAF8AA
:101D70000500002C25D1294B9846294B1C68002CC6
:101D800015D0002F20D1274F02E02469002C0ED05F
:101D90002368002BF9D03B68002B01D0A342F4D17B
:101DA00020002A003100C0472469002CF0D1019B9B
:101DB000002B27D105B0F0BCBB46B246A946A046D1
:101DC000F0BD194B9846D8E7164B994602ABDF1D7C
:101DD0000A239B4602E02469002CE8D02368002BEC
:101DE000F9D04B461B68002B01D0A342F3D12A0047
:101DF00031002000C0475B460122390020003B70C3
:101E0000C047E8E7504600F0AFF8D3E70122074BA0
:101E10005242A2E740420F0030020020811C001015
:101E2000E4050020E8050020711C0010FFFFFF7F83
:101E3000F0B5CE46474680B583B06B460600DD1D43
:101E40002870FFF793F800231A4A12184B41002B11
:101E50002BDB19490800884600F096F8174B81469D
:101E60001C68002C14D0164F02E02469002C0FD0FF
:101E70002368002BF9D03B68002B01D0A342F4D19A
:101E8000200001222900FFF7FBFE2469002CEFD17E
:101E90004B46002B05D1300003B0C0BCB946B0465C
:101EA000F0BD404600F060F8F5E70122054B5242D4
:101EB000CFE7C04640420F0030020020E40500207A
:101EC000E8050020FFFFFF7F70B5040000F01AF85E
:101ED00000230100050001222000FFF72BFF084B23
:101EE0001C68002C06D06368002B05D09847246935
:101EF000002CF8D1280070BD2469002CF3D1F9E73B
:101F0000E405002010B583070AD00300032102E096
:101F100001330B4205D01A78002AF9D1181A10BDE6
:101F2000030019680C4A0D4C8A188A4322420FD1CB
:101F30005968094A04338A188A43224208D15968E9
:101F4000054A04338A188A432242F1D000E0013363
:101F50001A78002AFBD1E1E7FFFEFEFE8080808038
:101F6000F8B5C0460000000001B40248844601BC38
:101F7000604700BF5D01002001B40248844601BCF7
:101F8000604700BF8501002001B40248844601BCBF
:081F9000604700BFC100002002
:101F9800486172647761726520616C61726D202599
:101FA8006420616C726561647920636C61696D6538
:101FB800640000000A2A2A2A2050414E4943202A58
:101FC8002A2A0A000A0000004861726420617373BB
:101FD8006572740052656C6561736500626F6F7439
:101FE800325F77323571303830000000312E352EAF
:101FF800310000007069636F000000006D61696E58
:102008000000000044656320323020323032330053
:1020180006005250BBFF3CB6FC1F00100600525091
:10202800E182887FE41F001006005250D3F0754209
:08203800DC1F00100D0A00007E
:10204000AC020010A0020010940200101820001032
:0C20500088020010242000103020001036
:10205C00F0B5C646150000B504001E000268EFF38B
:10206C00108172B61368002BFCD0BFF35F8F042372
:10207C00E356002B2DDB2268BFF35F8F002010602E
:10208C0081F31088D0221206127852B290469A42EE
:10209C0003D1002080BCB846F0BD00270BE02368BC
:1020AC00BFF35F8F1F6081F310882800310000F0B0
:1020BC0033F80028EDD12268EFF3108172B6136863
:1020CC00002BFCD0BFF35F8F23797F2BE7D94346DE
:1020DC0002E0D0231B061B6823712368BFF35F8FBC
:1020EC0000221A6081F310880120D3E70268EFF315
:1020FC00108172B61368002BFCD0BFF35F8FFF23E7
:10210C0003710368BFF35F8F00221A6081F310889C
:10211C0040BF70477047C04601B40248844601BCBA
:10212C00604700BFC50D001010000000000000004B
:10213C000000010000000000000000000000020090
:10214C000000000000000000000003000000000080
:10215C00000000000000FF000000000001B548680E
:10216C0001318E460047704609380149884701BD48
:10217C00A9060010FC010020000000005002002005
:10218C00A40500200000000000000000B4050020A1
:10219C000000000000000000100000000000000023
:1021AC00503300004C330000543300005233000015
:1021BC004D5300004D4300005334000043340000E5
:1021CC000000000000000000551C0010111A001047
:0C21DC00D11A0010C51B001031030010C8
:04000005100001E9FD
:00000001FF
